{
  "contractName": "StakingDapp",
  "abi": [
    {
      "inputs": [
        {
          "internalType": "contract RewardToken",
          "name": "_rewardToken",
          "type": "address"
        },
        {
          "internalType": "contract AKToken",
          "name": "_akToken",
          "type": "address"
        }
      ],
      "stateMutability": "nonpayable",
      "type": "constructor"
    },
    {
      "inputs": [],
      "name": "akToken",
      "outputs": [
        {
          "internalType": "contract AKToken",
          "name": "",
          "type": "address"
        }
      ],
      "stateMutability": "view",
      "type": "function"
    },
    {
      "inputs": [
        {
          "internalType": "address",
          "name": "",
          "type": "address"
        }
      ],
      "name": "hasStaked",
      "outputs": [
        {
          "internalType": "bool",
          "name": "",
          "type": "bool"
        }
      ],
      "stateMutability": "view",
      "type": "function"
    },
    {
      "inputs": [
        {
          "internalType": "address",
          "name": "",
          "type": "address"
        }
      ],
      "name": "isStaking",
      "outputs": [
        {
          "internalType": "bool",
          "name": "",
          "type": "bool"
        }
      ],
      "stateMutability": "view",
      "type": "function"
    },
    {
      "inputs": [],
      "name": "name",
      "outputs": [
        {
          "internalType": "string",
          "name": "",
          "type": "string"
        }
      ],
      "stateMutability": "view",
      "type": "function"
    },
    {
      "inputs": [],
      "name": "owner",
      "outputs": [
        {
          "internalType": "address",
          "name": "",
          "type": "address"
        }
      ],
      "stateMutability": "view",
      "type": "function"
    },
    {
      "inputs": [],
      "name": "rewardToken",
      "outputs": [
        {
          "internalType": "contract RewardToken",
          "name": "",
          "type": "address"
        }
      ],
      "stateMutability": "view",
      "type": "function"
    },
    {
      "inputs": [
        {
          "internalType": "uint256",
          "name": "",
          "type": "uint256"
        }
      ],
      "name": "stakers",
      "outputs": [
        {
          "internalType": "address",
          "name": "",
          "type": "address"
        }
      ],
      "stateMutability": "view",
      "type": "function"
    },
    {
      "inputs": [
        {
          "internalType": "address",
          "name": "",
          "type": "address"
        }
      ],
      "name": "stakingBalance",
      "outputs": [
        {
          "internalType": "uint256",
          "name": "",
          "type": "uint256"
        }
      ],
      "stateMutability": "view",
      "type": "function"
    },
    {
      "inputs": [
        {
          "internalType": "uint256",
          "name": "_amount",
          "type": "uint256"
        }
      ],
      "name": "stakeTokens",
      "outputs": [],
      "stateMutability": "nonpayable",
      "type": "function"
    },
    {
      "inputs": [],
      "name": "unstakeToken",
      "outputs": [],
      "stateMutability": "nonpayable",
      "type": "function"
    },
    {
      "inputs": [],
      "name": "issueDummy",
      "outputs": [],
      "stateMutability": "nonpayable",
      "type": "function"
    }
  ],
  "bytecode": "0x60806040526040518060400160405280600c81526020017f5374616b696e6720446170700000000000000000000000000000000000000000815250600090805190602001906200005192919062000150565b503480156200005f57600080fd5b50604051620013fe380380620013fe8339818101604052810190620000859190620002c3565b81600260006101000a81548173ffffffffffffffffffffffffffffffffffffffff021916908373ffffffffffffffffffffffffffffffffffffffff16021790555080600360006101000a81548173ffffffffffffffffffffffffffffffffffffffff021916908373ffffffffffffffffffffffffffffffffffffffff16021790555033600160006101000a81548173ffffffffffffffffffffffffffffffffffffffff021916908373ffffffffffffffffffffffffffffffffffffffff16021790555050506200036e565b8280546200015e9062000339565b90600052602060002090601f016020900481019282620001825760008555620001ce565b82601f106200019d57805160ff1916838001178555620001ce565b82800160010185558215620001ce579182015b82811115620001cd578251825591602001919060010190620001b0565b5b509050620001dd9190620001e1565b5090565b5b80821115620001fc576000816000905550600101620001e2565b5090565b600080fd5b600073ffffffffffffffffffffffffffffffffffffffff82169050919050565b6000620002328262000205565b9050919050565b6000620002468262000225565b9050919050565b620002588162000239565b81146200026457600080fd5b50565b60008151905062000278816200024d565b92915050565b60006200028b8262000225565b9050919050565b6200029d816200027e565b8114620002a957600080fd5b50565b600081519050620002bd8162000292565b92915050565b60008060408385031215620002dd57620002dc62000200565b5b6000620002ed8582860162000267565b92505060206200030085828601620002ac565b9150509250929050565b7f4e487b7100000000000000000000000000000000000000000000000000000000600052602260045260246000fd5b600060028204905060018216806200035257607f821691505b6020821081036200036857620003676200030a565b5b50919050565b611080806200037e6000396000f3fe608060405234801561001057600080fd5b50600436106100a95760003560e01c80636f49712b116100715780636f49712b1461012e5780637547c7a31461015e5780638da5cb5b1461017a578063c93c8f3414610198578063f7c618c1146101c8578063fd5e6dd1146101e6576100a9565b806306fdde03146100ae57806320eb640c146100cc57806330685185146100d657806339c2c4f6146100e057806345bc78ab146100fe575b600080fd5b6100b6610216565b6040516100c39190610a9c565b60405180910390f35b6100d46102a4565b005b6100de61046c565b005b6100e8610656565b6040516100f59190610b3d565b60405180910390f35b61011860048036038101906101139190610b9b565b61067c565b6040516101259190610be1565b60405180910390f35b61014860048036038101906101439190610b9b565b610694565b6040516101559190610c17565b60405180910390f35b61017860048036038101906101739190610c5e565b6106b4565b005b610182610958565b60405161018f9190610c9a565b60405180910390f35b6101b260048036038101906101ad9190610b9b565b61097e565b6040516101bf9190610c17565b60405180910390f35b6101d061099e565b6040516101dd9190610cd6565b60405180910390f35b61020060048036038101906101fb9190610c5e565b6109c4565b60405161020d9190610c9a565b60405180910390f35b6000805461022390610d20565b80601f016020809104026020016040519081016040528092919081815260200182805461024f90610d20565b801561029c5780601f106102715761010080835404028352916020019161029c565b820191906000526020600020905b81548152906001019060200180831161027f57829003601f168201915b505050505081565b6000600560003373ffffffffffffffffffffffffffffffffffffffff1673ffffffffffffffffffffffffffffffffffffffff1681526020019081526020016000205490506000811161032b576040517f08c379a000000000000000000000000000000000000000000000000000000000815260040161032290610d9d565b60405180910390fd5b600360009054906101000a900473ffffffffffffffffffffffffffffffffffffffff1673ffffffffffffffffffffffffffffffffffffffff1663a9059cbb33836040518363ffffffff1660e01b8152600401610388929190610dbd565b6020604051808303816000875af11580156103a7573d6000803e3d6000fd5b505050506040513d601f19601f820116820180604052508101906103cb9190610e12565b506000600560003373ffffffffffffffffffffffffffffffffffffffff1673ffffffffffffffffffffffffffffffffffffffff168152602001908152602001600020819055506000600760003373ffffffffffffffffffffffffffffffffffffffff1673ffffffffffffffffffffffffffffffffffffffff16815260200190815260200160002060006101000a81548160ff02191690831515021790555050565b600160009054906101000a900473ffffffffffffffffffffffffffffffffffffffff1673ffffffffffffffffffffffffffffffffffffffff163373ffffffffffffffffffffffffffffffffffffffff16146104fc576040517f08c379a00000000000000000000000000000000000000000000000000000000081526004016104f390610e8b565b60405180910390fd5b60005b6004805490508110156106535760006004828154811061052257610521610eab565b5b9060005260206000200160009054906101000a900473ffffffffffffffffffffffffffffffffffffffff1690506000600560008373ffffffffffffffffffffffffffffffffffffffff1673ffffffffffffffffffffffffffffffffffffffff168152602001908152602001600020549050600081111561063e57600260009054906101000a900473ffffffffffffffffffffffffffffffffffffffff1673ffffffffffffffffffffffffffffffffffffffff1663a9059cbb83836040518363ffffffff1660e01b81526004016105f9929190610dbd565b6020604051808303816000875af1158015610618573d6000803e3d6000fd5b505050506040513d601f19601f8201168201806040525081019061063c9190610e12565b505b5050808061064b90610f09565b9150506104ff565b50565b600360009054906101000a900473ffffffffffffffffffffffffffffffffffffffff1681565b60056020528060005260406000206000915090505481565b60076020528060005260406000206000915054906101000a900460ff1681565b600081116106f7576040517f08c379a00000000000000000000000000000000000000000000000000000000081526004016106ee90610f9d565b60405180910390fd5b600360009054906101000a900473ffffffffffffffffffffffffffffffffffffffff1673ffffffffffffffffffffffffffffffffffffffff166323b872dd3330846040518463ffffffff1660e01b815260040161075693929190610fbd565b6020604051808303816000875af1158015610775573d6000803e3d6000fd5b505050506040513d601f19601f820116820180604052508101906107999190610e12565b5080600560003373ffffffffffffffffffffffffffffffffffffffff1673ffffffffffffffffffffffffffffffffffffffff16815260200190815260200160002060008282546107e99190610ff4565b92505081905550600660003373ffffffffffffffffffffffffffffffffffffffff1673ffffffffffffffffffffffffffffffffffffffff16815260200190815260200160002060009054906101000a900460ff166108a5576004339080600181540180825580915050600190039060005260206000200160009091909190916101000a81548173ffffffffffffffffffffffffffffffffffffffff021916908373ffffffffffffffffffffffffffffffffffffffff1602179055505b6001600760003373ffffffffffffffffffffffffffffffffffffffff1673ffffffffffffffffffffffffffffffffffffffff16815260200190815260200160002060006101000a81548160ff0219169083151502179055506001600660003373ffffffffffffffffffffffffffffffffffffffff1673ffffffffffffffffffffffffffffffffffffffff16815260200190815260200160002060006101000a81548160ff02191690831515021790555050565b600160009054906101000a900473ffffffffffffffffffffffffffffffffffffffff1681565b60066020528060005260406000206000915054906101000a900460ff1681565b600260009054906101000a900473ffffffffffffffffffffffffffffffffffffffff1681565b600481815481106109d457600080fd5b906000526020600020016000915054906101000a900473ffffffffffffffffffffffffffffffffffffffff1681565b600081519050919050565b600082825260208201905092915050565b60005b83811015610a3d578082015181840152602081019050610a22565b83811115610a4c576000848401525b50505050565b6000601f19601f8301169050919050565b6000610a6e82610a03565b610a788185610a0e565b9350610a88818560208601610a1f565b610a9181610a52565b840191505092915050565b60006020820190508181036000830152610ab68184610a63565b905092915050565b600073ffffffffffffffffffffffffffffffffffffffff82169050919050565b6000819050919050565b6000610b03610afe610af984610abe565b610ade565b610abe565b9050919050565b6000610b1582610ae8565b9050919050565b6000610b2782610b0a565b9050919050565b610b3781610b1c565b82525050565b6000602082019050610b526000830184610b2e565b92915050565b600080fd5b6000610b6882610abe565b9050919050565b610b7881610b5d565b8114610b8357600080fd5b50565b600081359050610b9581610b6f565b92915050565b600060208284031215610bb157610bb0610b58565b5b6000610bbf84828501610b86565b91505092915050565b6000819050919050565b610bdb81610bc8565b82525050565b6000602082019050610bf66000830184610bd2565b92915050565b60008115159050919050565b610c1181610bfc565b82525050565b6000602082019050610c2c6000830184610c08565b92915050565b610c3b81610bc8565b8114610c4657600080fd5b50565b600081359050610c5881610c32565b92915050565b600060208284031215610c7457610c73610b58565b5b6000610c8284828501610c49565b91505092915050565b610c9481610b5d565b82525050565b6000602082019050610caf6000830184610c8b565b92915050565b6000610cc082610b0a565b9050919050565b610cd081610cb5565b82525050565b6000602082019050610ceb6000830184610cc7565b92915050565b7f4e487b7100000000000000000000000000000000000000000000000000000000600052602260045260246000fd5b60006002820490506001821680610d3857607f821691505b602082108103610d4b57610d4a610cf1565b5b50919050565b7f7374616b696e672062616c616e6365206973207a65726f000000000000000000600082015250565b6000610d87601783610a0e565b9150610d9282610d51565b602082019050919050565b60006020820190508181036000830152610db681610d7a565b9050919050565b6000604082019050610dd26000830185610c8b565b610ddf6020830184610bd2565b9392505050565b610def81610bfc565b8114610dfa57600080fd5b50565b600081519050610e0c81610de6565b92915050565b600060208284031215610e2857610e27610b58565b5b6000610e3684828501610dfd565b91505092915050565b7f63616c6c6572206d75737420626520746865206f776e65720000000000000000600082015250565b6000610e75601883610a0e565b9150610e8082610e3f565b602082019050919050565b60006020820190508181036000830152610ea481610e68565b9050919050565b7f4e487b7100000000000000000000000000000000000000000000000000000000600052603260045260246000fd5b7f4e487b7100000000000000000000000000000000000000000000000000000000600052601160045260246000fd5b6000610f1482610bc8565b91507fffffffffffffffffffffffffffffffffffffffffffffffffffffffffffffffff8203610f4657610f45610eda565b5b600182019050919050565b7f616d6f756e742063616e206e6f74206265207a65726f00000000000000000000600082015250565b6000610f87601683610a0e565b9150610f9282610f51565b602082019050919050565b60006020820190508181036000830152610fb681610f7a565b9050919050565b6000606082019050610fd26000830186610c8b565b610fdf6020830185610c8b565b610fec6040830184610bd2565b949350505050565b6000610fff82610bc8565b915061100a83610bc8565b9250827fffffffffffffffffffffffffffffffffffffffffffffffffffffffffffffffff0382111561103f5761103e610eda565b5b82820190509291505056fea264697066735822122067771876d6180c51cc0b023244b7132df45b1db8da060f39eb76863b3da3be6664736f6c634300080d0033",
  "immutableReferences": {},
  "source": "// SPDX-License-Identifier: MIT\npragma solidity >=0.4.22 <0.9.0;\n\nimport \"./AKToken.sol\";\nimport \"./RewardToken.sol\";\n\ncontract StakingDapp {\n    string public name = \"Staking Dapp\";\n    address public owner;\n    RewardToken public rewardToken;\n    AKToken public akToken;\n\n    address[] public stakers;\n    mapping(address => uint256) public stakingBalance;\n    mapping(address => bool) public hasStaked;\n    mapping(address => bool) public isStaking;\n\n    constructor(RewardToken _rewardToken, AKToken _akToken) public {\n        rewardToken = _rewardToken;\n        akToken = _akToken;\n        owner = msg.sender;\n    }\n\n    function stakeTokens(uint256 _amount) public {\n        require(_amount > 0, \"amount can not be zero\"); //if amount is zero\n\n        akToken.transferFrom(msg.sender, address(this), _amount); //transfer tether token\n\n        stakingBalance[msg.sender] += _amount; //update the staking balanace\n\n        if (!hasStaked[msg.sender]) {\n            stakers.push(msg.sender); // add user to staker array\n        }\n\n        isStaking[msg.sender] = true; // update staking status for the user\n        hasStaked[msg.sender] = true;\n    }\n\n    function unstakeToken() public {\n        uint256 balance = stakingBalance[msg.sender]; //fetch balance of staker\n        require(balance > 0, \"staking balance is zero\"); // check if balance is zero\n        akToken.transfer(msg.sender, balance); //transfer back tehter token to use\n\n        stakingBalance[msg.sender] = 0; // set staking balance to zero\n        isStaking[msg.sender] = false; // update the staking status\n    }\n\n    function issueDummy() public {\n        require(msg.sender == owner, \"caller must be the owner\"); // check if owner is access\n\n        for (uint256 i = 0; i < stakers.length; i++) {\n            address recipient = stakers[i]; // recipient\n            uint256 balance = stakingBalance[recipient]; // balance for recipient\n            if (balance > 0) {\n                rewardToken.transfer(recipient, balance); // trnasfer dummy token to recipient\n            }\n        }\n    }\n}\n",
  "sourcePath": "/Users/ankit/Learning/blockchain/stacking-dapp/src/contracts/StakingDapp.sol",
  "compiler": {
    "name": "solc",
    "version": "0.8.13+commit.abaa5c0e.Emscripten.clang"
  },
  "schemaVersion": "3.4.7",
  "updatedAt": "2022-05-22T05:47:53.443Z",
  "devdoc": {
    "kind": "dev",
    "methods": {},
    "version": 1
  },
  "userdoc": {
    "kind": "user",
    "methods": {},
    "version": 1
  }
}